:100000000C942A000C943C000C943C000C943C0092
:100010000C943C000C943C000C943C000C943C0070
:100020000C943C000C943C000C94BC000C94E30039
:100030000C943C000C943C000C943C000C943C0050
:100040000C943C000C943C000C943C000C943C0040
:100050000C943C0011241FBECFE5D8E0DEBFCDBF1D
:1000600020E0A0E6B0E001C01D92A936B207E1F79A
:100070000E944E000C940F010C94000081E690E069
:100080000E94AC00809161008BBB089580E690E0F7
:100090000E94A7008091600085BB0895CF93DF93F5
:1000A00000D000D0CDB7DEB78FEF8ABB84BB789489
:1000B00086E490E00E94B2008EE390E00E94B700D8
:1000C000198282E08A8381E08B8385E08C8380EFD4
:1000D0000E94A400CE0101960E946F00FFCF0097FE
:1000E00079F19093660080936500FC0180818823FC
:1000F00011F0883019F493B7892B83BFE091650024
:10010000F09166008381883018F493B7892B83BF00
:10011000E0916500F09166008181882311F08230C2
:1001200019F499B7892B89BFE0916500F0916600B9
:100130008281823038F499B7892B89BF80E0089595
:1001400081E0089581E008958CBF81E0089522B791
:10015000FC01208381E0089520916200FC0120834E
:1001600081E00895909364008093630008959093D4
:1001700068008093670008951F920F920FB60F9248
:1001800011242F933F934F935F936F937F938F939C
:100190009F93AF93BF93EF93FF93E0916300F09130
:1001A00064000995FF91EF91BF91AF919F918F915D
:1001B0007F916F915F914F913F912F910F900FBE63
:1001C0000F901F9018951F920F920FB60F92112447
:1001D0002F933F934F935F936F937F938F939F934F
:1001E000AF93BF93EF93FF93809162008F5F8093F3
:1001F0006200E0916700F09168000995FF91EF912E
:10020000BF91AF919F918F917F916F915F914F912E
:100210003F912F910F900FBE0F901F901895F8945B
:02022000FFCF0E
:00000001FF
