:100000000C942A000C9434000C9434000C943400AA
:100010000C9434000C9434000C9434000C94340090
:100020000C9434000C9434000C9434000C94340080
:100030000C9434000C9434000C9434000C94340070
:100040000C9434000C9434000C9434000C94340060
:100050000C94340011241FBECFE5D8E0DEBFCDBF25
:100060000E943D000C9452000C9400008FE081BD72
:10007000089588E181BD11BC089581B3806C81BB76
:100080000E9436002FEF80E792E0215080409040A0
:10009000E1F700C0000092B380E4892782BB0E9490
:0800A0003900EECFF894FFCF08
:00000001FF
