:100000000C942A000C9447000C9447000C94470071
:100010000C9447000C9447000C9447000C94470044
:100020000C9447000C9447000C9447000C94470034
:100030000C9447000C9447000C9447000C94AE06B7
:100040000C9447000C9447000C9447000C94470014
:100050000C94470011241FBECFE5D8E0DEBFCDBF12
:1000600010E0A0E6B0E0EAE5FAE202C005900D92E9
:10007000A03BB107D9F710E0A0EBB0E001C01D92A2
:10008000A43BB107E1F70E94FC110C942B150C94D2
:100090000000EF92FF920F931F937B018C0120E0F1
:1000A00030E040E05FE40E94490388238CF0C801FF
:1000B000B70120E030E040E05FE40E94C1010E940F
:1000C000A9039B01AC01205030404040504806C07D
:1000D000C801B7010E94A9039B01AC01B901CA0183
:1000E0001F910F91FF90EF900895A0E0B0E0EBE733
:1000F000F0E00C945312DC012B01FA019C91923038
:1001000008F439C1EB018881823008F433C194309E
:1001100069F4843009F02FC111969C91119789815F
:10012000981709F428C1A3E6B0E025C1843009F48A
:1001300021C18230A9F4923009F01DC19A01AD01AC
:1001400088E0EA010990AE01E90109929E0181501F
:10015000C1F7E201898111969C918923818308C1AD
:10016000923009F407C112962D903C901397EB0141
:100170008A819B811496AD90BD90CD90DC901797AD
:10018000EC80FD800E811F819101281B390BB90184
:1001900037FF04C066277727621B730B6032710537
:1001A0000CF061C0121613066CF537014801062EDB
:1001B00004C096948794779467940A94D2F721E0C8
:1001C00030E040E050E004C0220F331F441F551FB1
:1001D0006A95D2F721503040404050402E213F21B7
:1001E00040235123211531054105510521F021E01E
:1001F00030E040E050E079018A01E628F72808293C
:1002000019293CC0232BD1F1260E371E350146019A
:10021000062E04C096948794779467940A94D2F734
:1002200021E030E040E050E004C0220F331F441FC3
:10023000551F6A95D2F721503040404050402A2146
:100240003B214C215D21211531054105510521F04E
:1002500021E030E040E050E059016A01A628B728CB
:10026000C828D9280BC0821593052CF01C01AA249C
:10027000BB24650103C0EE24FF24870111969C91E5
:10028000D20111968C91981709F445C0992339F041
:10029000A80197012A193B094C095D0906C0A6016E
:1002A00095012E193F09400B510B57FD08C01182D3
:1002B0003382228224833583468357831DC081E0A5
:1002C00081833382228288279927DC01821B930B4A
:1002D000A40BB50B84839583A683B7830DC0220F2F
:1002E000331F441F551F24833583468357838281E0
:1002F000938101979383828324813581468157813D
:10030000DA01C9010197A109B1098F5F9F4FAF4F72
:10031000BF4328F30BC0918333822282EA0CFB1C7B
:100320000C1D1D1DE482F5820683178383E0808304
:10033000248135814681578157FF1AC0C901AA27F8
:1003400097FDA095BA2F81709070A070B0705695EF
:10035000479537952795822B932BA42BB52B848318
:100360009583A683B7838281938101969383828349
:10037000DF0101C0D201CD01CDB7DEB7E2E10C94BF
:100380006F12A0E2B0E0E7ECF1E00C945F12698339
:100390007A838B839C832D833E834F835887E9E048
:1003A000EE2EF12CEC0EFD1ECE010196B7010E943F
:1003B000D2048E010F5E1F4FCE010596B8010E9438
:1003C000D2048A8991E089278A8BC701B801AE01DE
:1003D000475E5F4F0E9475000E94FD03A096E6E015
:1003E0000C947B12A0E2B0E0E8EFF1E00C945F1215
:1003F00069837A838B839C832D833E834F835887C5
:10040000F9E0EF2EF12CEC0EFD1ECE010196B701A6
:100410000E94D2048E010F5E1F4FCE010596B801D7
:100420000E94D204C701B801AE01475E5F4F0E942F
:1004300075000E94FD03A096E6E00C947B12A0E2FA
:10044000B0E0E5E2F2E00C94531269837A838B8387
:100450009C832D833E834F835887CE010196BE0136
:10046000675F7F4F0E94D204CE010596BE016F5E8A
:100470007F4F0E94D2049985923088F0898982301A
:10048000C8F0943019F4823051F404C0843029F457
:10049000923081F483E690E0C6C0923049F420E0C7
:1004A0009A858A89981321E02A87CE010996BBC0D4
:1004B000823049F420E09A858A89981321E02A8BBA
:1004C000CE014196B0C02D843E844F8458886D88FB
:1004D0007E888F88988CEE24FF248701AA24BB2471
:1004E000650140E050E060E070E0E0E0F0E0C10174
:1004F00081709070892BE9F0E60CF71C081D191D1E
:100500009A01AB012A0D3B1D4C1D5D1D80E090E062
:10051000A0E0B0E0E614F7040805190520F481E036
:1005200090E0A0E0B0E0BA01A901480F591F6A1F8E
:100530007B1FAA0CBB1CCC1CDD1C97FE08C081E0F5
:1005400090E0A0E0B0E0A82AB92ACA2ADB2A3196B6
:10055000E032F10549F0660C771C881C991C569412
:10056000479437942794C3CFFA85EA892B893C892D
:100570008B859C85280F391F2E5F3F4F17C0CA01FE
:1005800081709070892B61F016950795F794E79428
:1005900080E090E0A0E0B0E8E82AF92A0A2B1B2BC3
:1005A00076956795579547952F5F3F4F77FDE7CF36
:1005B0000CC0440F551F661F771F17FD4160EE0CDE
:1005C000FF1C001F111F21503040403090E05907A0
:1005D00090E0690790E4790760F32B8F3C8FDB0193
:1005E000CA018F779070A070B07080349105A1051A
:1005F000B10561F447FD0AC0E114F10401051105DC
:1006000029F0405C5F4F6F4F7F4F40781A8EFE1786
:1006100011F081E08A8F4D8F5E8F6F8F78A383E01A
:10062000898FCE0149960E94FD03A096E2E10C94C9
:100630006F12A8E1B0E0EFE1F3E00C945F12698380
:100640007A838B839C832D833E834F83588789E0F5
:10065000E82EF12CEC0EFD1ECE010196B7010E9492
:10066000D2048E010F5E1F4FCE010596B8010E9485
:10067000D2048985823040F08989823028F0C70110
:10068000B8010E944A0501C08FEF6896E6E00C941D
:100690007B12A8E1B0E0EFE4F3E00C945F12698311
:1006A0007A838B839C832D833E834F83588789E095
:1006B000E82EF12CEC0EFD1ECE010196B7010E9432
:1006C000D2048E010F5E1F4FCE010596B8010E9425
:1006D000D2048985823040F08989823028F0C701B0
:1006E000B8010E944A0501C08FEF6896E6E00C94BD
:1006F0007B12A8E1B0E0EFE7F3E00C945F126983AE
:100700007A838B839C832D833E834F83588789E034
:10071000E82EF12CEC0EFD1ECE010196B7010E94D1
:10072000D2048E010F5E1F4FCE010596B8010E94C4
:10073000D2048985823040F08989823028F0C7014F
:10074000B8010E944A0501C081E06896E6E00C9479
:100750007B12ACE0B0E0EFEAF3E00C946312698343
:100760007A838B839C83CE010196BE016B5F7F4FA2
:100770000E94D2048D81823061F1823050F1843048
:1007800021F48E81882351F12EC02F81388537FDC9
:1007900020C06E812F3131051CF06623F9F023C093
:1007A0008EE190E0821B930B29853A854B855C8511
:1007B00004C056954795379527958A95D2F76623B5
:1007C000B1F050954095309521953F4F4F4F5F4F79
:1007D0000EC020E030E040E050E009C02FEF3FEFD6
:1007E0004FEF5FE704C020E030E040E050E8B9019F
:1007F000CA012C96E2E00C947F12DF92EF92FF92F6
:100800000F931F93FC01E480F58006811781D1804E
:100810008081823048F480E090E0A0E1B0E0E82AF6
:10082000F92A0A2B1B2BA5C0843009F49FC0823003
:1008300021F4EE24FF24870105C0E114F104010531
:10084000110519F4E0E0F0E096C0628173819FEF3A
:10085000623879070CF05BC022E83FEF261B370BAC
:100860002A3131052CF020E030E040E050E02AC091
:10087000B801A701022E04C0769567955795479554
:100880000A94D2F781E090E0A0E0B0E004C0880FC5
:10089000991FAA1FBB1F2A95D2F70197A109B10979
:1008A0008E219F21A023B1230097A105B10521F03E
:1008B00081E090E0A0E0B0E09A01AB01282B392B59
:1008C0004A2B5B2BDA01C9018F779070A070B07052
:1008D00080349105A105B10539F427FF09C0205CDA
:1008E0003F4F4F4F5F4F04C0215C3F4F4F4F5F4F13
:1008F000E0E0F0E02030A0E03A07A0E04A07A0E402
:100900005A0710F0E1E0F0E079018A0127C0603871
:10091000710564F5FB01E158FF4FD801C7018F77DE
:100920009070A070B07080349105A105B10539F4C4
:10093000E7FE0DC080E490E0A0E0B0E004C08FE3EB
:1009400090E0A0E0B0E0E80EF91E0A1F1B1F17FFA1
:1009500005C016950795F794E794319687E01695AC
:100960000795F794E7948A95D1F705C0EE24FF2404
:100970008701EFEFF0E06E2F679566276795902F60
:100980009F77D794DD24D7948E2F8695492F462BB9
:10099000582F5D29B701CA011F910F91FF90EF9069
:1009A000DF900895FC01DB01408151812281622F9B
:1009B0006F7770E0221F2227221F9381892F880FD3
:1009C000822B282F30E0991F9927991F11969C930D
:1009D000119721153105A9F54115510561057105DD
:1009E00011F482E037C082E89FEF13969C938E93B8
:1009F00012979A01AB0167E0220F331F441F551F66
:100A00006A95D1F783E08C930DC0220F331F441FEA
:100A1000551F12968D919C911397019713969C9355
:100A20008E931297203080E0380780E0480780E4FA
:100A3000580758F314962D933D934D935C93179755
:100A400008952F3F310579F4411551056105710570
:100A500019F484E08C93089564FF03C081E08C93C3
:100A600012C01C9210C02F57304013963C932E9307
:100A7000129783E08C9387E0440F551F661F771F02
:100A80008A95D1F7706414964D935D936D937C9322
:100A9000179708951F93DC01FB019C91923008F495
:100AA00047C08081823008F443C0943051F41196DD
:100AB0001C91843099F58181682F70E0611B710968
:100AC0003FC0843021F0923031F48230B9F181811D
:100AD000882389F12DC011961C9111978230F1F075
:100AE00081811817D9F412962D913C911397828128
:100AF00093818217930794F028173907BCF0149656
:100B00008D919D910D90BC91A02D248135814681C0
:100B10005781281739074A075B0718F4112341F05A
:100B20000AC082179307A407B50740F4112319F0F0
:100B300061E070E005C06FEF7FEF02C060E070E041
:100B4000CB011F910895DF93CF93CDB7DEB7E9E2D4
:100B5000F0E083E38083ABE2B0E0EBE2F0E08081A1
:100B60008D7F8C93AAE2B0E0EAE2F0E080818860B9
:100B70008C93AAE2B0E0EAE2F0E0808180618C939D
:100B8000CF91DF910895DF93CF930F92CDB7DEB76A
:100B90008983EBE2F0E08081829586958770882FCB
:100BA00090E0817090700097A1F3ECE2F0E0898111
:100BB00080830F90CF91DF910895DF93CF93CDB7CE
:100BC000DEB7EBE2F0E080818823DCF7ECE2F0E0D6
:100BD0008081CF91DF910895DF93CF9300D00F9262
:100BE000CDB7DEB79B838A8319820EC08981282FF7
:100BF00030E08A819B81FC01E20FF31F80810E941B
:100C0000C30589818F5F89838981282F30E08A819C
:100C10009B81FC01E20FF31F8081882339F70F903D
:100C20000F900F90CF91DF9108950F931F93DF9353
:100C3000CF9300D00F92CDB7DEB79B838A83198202
:100C40008981282F30E08A819B818C01020F131F3C
:100C50000E94DD05F801808389818F5F8983898106
:100C6000882F90E09C01215030408A819B81FC01BB
:100C7000E20FF31F80818D3019F78981882F90E072
:100C80009C01215030408A819B81FC01E20FF31FBF
:100C900010820F900F900F90CF91DF911F910F91C5
:100CA0000895DF93CF93CDB7DEB7AAE2B0E0EAE2D2
:100CB000F0E0808180648C93CF91DF910895DF9381
:100CC000CF93CDB7DEB7AAE2B0E0EAE2F0E08081F0
:100CD0008F7B8C93CF91DF910895DF93CF93CDB726
:100CE000DEB7AAE2B0E0EAE2F0E0808180688C93AF
:100CF000CF91DF910895DF93CF93CDB7DEB7AAE20E
:100D0000B0E0EAE2F0E080818F778C93CF91DF91C1
:100D10000895DF93CF9300D0CDB7DEB79A83898350
:100D2000AFE5B0E0EFE5F0E0808180688C930E9451
:100D30005106E981FA818081882329F0E981FA81CD
:100D400080810E94C30589819A819093B10080932C
:100D5000B0000F900F90CF91DF9108951F920F92E6
:100D60000FB60F9211242F933F938F939F93AF93BE
:100D7000BF93EF93FF93DF93CF93CDB7DEB720916F
:100D8000B0003091B10080916B00882F90E0F901A4
:100D9000E80FF91F80818823A9F0ACE2B0E0209130
:100DA000B0003091B10080916B00882F90E0F90184
:100DB000E80FF91F80818C9380916B008F5F809387
:100DC0006B0012C081E080936B00ACE2B0E0209138
:100DD000B0003091B10080916B00882F90E0F90154
:100DE000E80FF91F80818C93CF91DF91FF91EF91F4
:100DF000BF91AF919F918F913F912F910F900FBE17
:100E00000F901F901895DF93CF930F92CDB7DEB759
:100E10008091740090917500692F41E00E949C11AF
:100E20008091740090917500692F40E00E943C1100
:100E3000198231C08981882F90E0880F991FFC01A9
:100E4000E459FF4F20818981882F90E0880F991FF6
:100E5000FC01E359FF4F9081822F692F41E00E94EE
:100E60009C118981882F90E0880F991FFC01E4591B
:100E7000FF4F20818981882F90E0880F991FFC0106
:100E8000E359FF4F9081822F692F40E00E943C116F
:100E900089818F5F89838981843060F281E00F903E
:100EA000CF91DF910895DF93CF9300D00F92CDB70C
:100EB000DEB78A838A818A3010F01B8232C00E949A
:100EC0009807198229C08981882F90E0880F991F7F
:100ED000FC01E459FF4F50818981882F90E0880FF1
:100EE000991FFC01E359FF4F40818A81282F30E090
:100EF0008981882F90E0B90102C0759567958A9520
:100F0000E2F7CB01982F9170852F642F492F0E9413
:100F10003C1189818F5F898389818430A0F271E0DF
:100F20007B838B810F900F900F90CF91DF9108956D
:100F3000DF93CF93CDB7DEB78091740090917500A9
:100F4000692F41E00E943C1181E0CF91DF9108952B
:100F5000DF93CF930F92CDB7DEB7198249C0898155
:100F6000282F30E0C901880F991F820F931FFC01C1
:100F7000EA58FF4F40818981282F30E0C901880F4E
:100F8000991F820F931FFC01E958FF4F9081842F16
:100F9000692F40E00E949C118981282F30E0C9010F
:100FA000880F991F820F931FFC01EA58FF4F508151
:100FB0008981282F30E0C901880F991F820F931F64
:100FC000FC01E958FF4F40818981282F30E0C90199
:100FD000880F991F820F931FFC01E858FF4F9081E3
:100FE000852F642F492F0E943C1189818F5F89834F
:100FF0008981833008F4B3CF81E00F90CF91DF91E6
:101000000895DF93CF9300D0CDB7DEB78983898170
:10101000282F30E0C901880F991F820F931FFC0110
:10102000EA58FF4F40818981282F30E0C901880F9D
:10103000991F820F931FFC01E958FF4F9081842F65
:10104000692F0E94FB10882311F41A8202C081E0EC
:101050008A838A810F900F90CF91DF910895DF935B
:10106000CF93CDB7DEB78FEF60E00E94E5108FEF32
:1010700063E00E94E51081E0CF91DF910895DF9356
:10108000CF9300D0CDB7DEB78A83198227C08A817B
:10109000482F50E08981282F30E0CA01880F991F1E
:1010A000880F991F880F991F820F931FFC01E15829
:1010B000FF4F8081809563E00E94CF108981282FA7
:1010C00030E081E090E002C0880F991F2A95E2F796
:1010D00060E00E94CF1089818F5F89838981883089
:1010E000B0F281E00F900F90CF91DF9108950F93B0
:1010F000DF93CF93CDB7DEB7A4970FB6F894DEBFDA
:101100000FBECDBF2D8F3E8F4F8F58A369A37AA3FB
:101110008BA39CA380E090E0A0EAB1E4898F9A8F32
:10112000AB8FBC8F698D7A8D8B8D9C8D20E030E0EC
:101130004AE753E40E941F02DC01CB018D8B9E8B9A
:10114000AF8BB88F6D897E898F89988D20E030E0D4
:1011500040E85FE30E94790388232CF481E090E06B
:101160009C8B8B8B3FC06D897E898F89988D20E009
:101170003FEF4FE757E40E94190318164CF5698DAD
:101180007A8D8B8D9C8D20E030E040E251E40E940E
:101190001F02DC01CB01BC01CD010E944900DC0132
:1011A000CB019C8B8B8B0FC089E190E09A8B898B54
:1011B00089899A890197F1F79A8B898B8B899C8908
:1011C00001979C8B8B8B8B899C89009769F714C046
:1011D0006D897E898F89988D0E944900DC01CB0141
:1011E0009C8B8B8B8B899C89988B8F878F8598891B
:1011F0000197F1F7988B8F878F8D98A1692F41E028
:101200000E949C118F8D98A1692F40E00E943C1193
:101210008BA19CA1692F41E00E949C118BA19CA1F4
:10122000692F40E00E943C1189A19AA1692F41E0F9
:101230000E949C1189A19AA1692F40E00E943C1153
:1012400080E00E945610282F822F90E00196DC014A
:10125000822F90E00196FC018081806F8C9380E06A
:1012600090E0A0E7B1E48B879C87AD87BE876B8554
:101270007C858D859E8520E030E04AE753E40E941E
:101280001F02DC01CB018F839887A987BA876F8102
:10129000788589859A8520E030E040E85FE30E9408
:1012A000790388232CF481E090E09E838D833FC0F6
:1012B0006F81788589859A8520E03FEF4FE757E475
:1012C0000E94190318164CF56B857C858D859E85CB
:1012D00020E030E040E251E40E941F02DC01CB013B
:1012E000BC01CD010E944900DC01CB019E838D83AE
:1012F0000FC089E190E09C838B838B819C81019757
:10130000F1F79C838B838D819E8101979E838D83D2
:101310008D819E81009769F714C06F8178858985DA
:101320009A850E944900DC01CB019E838D838D81CB
:101330009E819A83898389819A810197F1F79A83A3
:1013400089832D8D3E8D4F8D58A169A17AA18BA1E6
:101350009CA102E00E94ED092D8D3E8D4F8D58A17C
:1013600069A17AA18BA19CA108E20E94ED092D8DB3
:101370003E8D4F8D58A169A17AA18BA19CA10FE050
:101380000E94ED092D8D3E8D4F8D58A169A17AA146
:101390008BA19CA106E00E94ED092D8D3E8D4F8D05
:1013A00058A169A17AA18BA19CA100E80E94ED0936
:1013B0002D8D3E8D4F8D58A169A17AA18BA19CA145
:1013C00001E00E94ED09A4960FB6F894DEBF0FBEAF
:1013D000CDBFCF91DF910F9108950F93DF93CF93FE
:1013E000CDB7DEB729970FB6F894DEBF0FBECDBFDD
:1013F00029833A834B835C836D837E838F839887B5
:10140000098729813A814B815C816D817E818F8141
:1014100098850E94720C80E00E945610282F822F1F
:1014200090E00296DC01822F90E00296FC01808120
:101430008F708C9380E00E945610282F822F90E0AE
:101440000296DC01822F90E00296FC018081282F19
:10145000898582958F70882F90E090708295929503
:10146000907F9827807F9827822B8C938D819E81F7
:10147000692F40E00E943C118F819885692F40E0E0
:101480000E943C1129813A814B815C816D817E8172
:101490008F8198850E94C60C80E00E945610282FEC
:1014A000822F90E00296DC01822F90E00296FC01F0
:1014B00080818F708C9380E00E945610282F822F9D
:1014C00090E00296DC01822F90E00296FC01808180
:1014D000282F8985882F90E082959295907F982774
:1014E000807F9827822B8C938D819E81692F40E08D
:1014F0000E943C118F819885692F40E00E943C1129
:1015000029813A814B815C816D817E818F819885B3
:101510000E94C60C29960FB6F894DEBF0FBECDBF51
:10152000CF91DF910F910895EF920F93DF93CF93B7
:10153000CDB7DEB729970FB6F894DEBF0FBECDBF8B
:1015400029833A834B835C836D837E838F83988763
:10155000098729813A814B815C816D817E818F81F0
:1015600098850E94720C80E00E945610282F822FCE
:1015700090E00296DC01822F90E00296FC018081CF
:101580008F708C9380E00E945610282F822F90E05D
:101590000296DC01822F90E00296FC018081282FC8
:1015A000898582958F70882F90E0907082959295B2
:1015B000907F9827807F9827822B8C938D819E81A6
:1015C000692F40E00E943C118F819885692F41E08E
:1015D0000E943C1129813A814B815C816D817E8121
:1015E0008F8198850E94C60C80E00E945610282F9B
:1015F000822F90E00296DC01822F90E00296FC019F
:1016000080818F708C9380E00E945610282F822F4B
:1016100090E00296DC01822F90E00296FC0180812E
:10162000282F8985882F90E082959295907F982722
:10163000807F9827822B8C938D819E81692F40E03B
:101640000E943C118F819885692F41E00E943C11D6
:1016500029813A814B815C816D817E818F81988562
:101660000E94C60C8091B2009091B30001969093B5
:10167000B3008093B2008091B2009091B3008031AA
:10168000910569F429813A814B815C816D817E816C
:101690008F81988501E0EE240E94E50B21C08091A6
:1016A000B2009091B30080329105D1F429813A8142
:1016B0004B815C816D817E818F8198850E945F0D59
:1016C00029813A814B815C816D817E818F819885F2
:1016D00000E0EE240E94E50B1092B3001092B200DD
:1016E00029960FB6F894DEBF0FBECDBFCF91DF9124
:1016F0000F91EF900895EF920F931F93DF93CF9385
:10170000CDB7DEB72B970FB6F894DEBF0FBECDBFB7
:101710002A833B834C835D836E837F83888799878D
:101720001B870A8719822A813B814C815D816E81EA
:101730007F81888599850E94720C36C0EA85FB8579
:10174000E0818A859B8501969B878A872A813B81D8
:101750004C815D816E817F81888599850E2F0E94E5
:10176000940A89818F5F89838981803169F42A8114
:101770003B814C815D816E817F818885998501E007
:10178000EE240E94E50B10C08981803269F4198231
:101790002A813B814C815D816E817F81888599851D
:1017A00000E0EE240E94E50BEA85FB85808188231A
:1017B00029F62B960FB6F894DEBF0FBECDBFCF91A2
:1017C000DF911F910F91EF900895EF920F93DF93A8
:1017D000CF93CDB7DEB72C970FB6F894DEBF0FBE10
:1017E000CDBF2A833B834C835D836E837F83888751
:1017F00099870A87EB868A85813019F08A85882344
:10180000E1F48B858031C8F48A85813029F48B8599
:10181000982F90549C8704C08B85982F90589C8754
:101820008C8589832A813B814C815D816E817F819A
:101830008885998509810E94ED092C960FB6F89448
:10184000DEBF0FBECDBFCF91DF910F91EF90089516
:101850000F931F93DF93CF93CDB7DEB764970FB687
:10186000F894DEBF0FBECDBF2B873C874D875E87C8
:101870006F87788B898B9A8B1C8B0B8B00D000D059
:1018800000D0EDB7FEB73196CE01019691838083EB
:1018900080E690E0938382838B899C8995838483FF
:1018A0000E948A128DB79EB706960FB6F8949EBF17
:1018B0000FBE8DBF2B853C854D855E856F857889F4
:1018C00089899A89FE0131968F010E947B0B64966B
:1018D0000FB6F894DEBF0FBECDBFCF91DF911F9141
:1018E0000F910895DF93CF93CDB7DEB728970FB64A
:1018F000F894DEBF0FBECDBF29833A834B835C8350
:101900006D837E838F83988780E00E945610282FF6
:10191000822F90E00196DC01822F90E00196FC017D
:1019200080818F708C938D819E81692F41E00E9410
:101930003C118F819885692F40E00E943C1101C0C5
:10194000000089819A8167E00E94FB108823C1F31F
:1019500080E00E945610282F822F90E00196DC0133
:10196000822F90E00196FC018081806F8C938D81A5
:101970009E81692F40E00E943C1128960FB6F89492
:10198000DEBF0FBECDBFCF91DF910895DF93CF9320
:10199000CDB7DEB766970FB6F894DEBF0FBECDBFEA
:1019A0002F87388B498B5A8B6B8B7C8B8D8B9E8BC7
:1019B00089899A89692F41E00E943C1180E090E07A
:1019C000A8E4B2E48B879C87AD87BE876B857C8556
:1019D0008D859E8520E030E04AE753E40E941F0297
:1019E000DC01CB018F839887A987BA876F817885BF
:1019F00089859A8520E030E040E85FE30E94790322
:101A000088232CF481E090E09E838D833FC06F811A
:101A1000788589859A8520E03FEF4FE757E40E945B
:101A2000190318164CF56B857C858D859E8520E005
:101A300030E040E251E40E941F02DC01CB01BC0116
:101A4000CD010E944900DC01CB019E838D830FC034
:101A500089E190E09C838B838B819C810197F1F7D6
:101A60009C838B838D819E8101979E838D838D8145
:101A70009E81009769F714C06F81788589859A8562
:101A80000E944900DC01CB019E838D838D819E8164
:101A90009A83898389819A810197F1F79A8389834F
:101AA00089899A89692F40E00E943C1166960FB699
:101AB000F894DEBF0FBECDBFCF91DF9108950F9395
:101AC000DF93CF93CDB7DEB728970FB6F894DEBF7C
:101AD0000FBECDBF29833A834B835C836D837E83A6
:101AE0008F83988729813A814B815C816D817E81CA
:101AF0008F81988501E00E94ED0928960FB6F89431
:101B0000DEBF0FBECDBFCF91DF910F910895DF9360
:101B1000CF93CDB7DEB783E060EF0E94E51083E09E
:101B20006FEF0E94CF10CF91DF910895DF93CF9395
:101B3000CDB7DEB761970FB6F894DEBF0FBECDBF4D
:101B4000188ABAC083E06FEF0E94CF108889882F6F
:101B500090E0880F991FFC01E955FF4F808191812A
:101B6000982F83E0692F40E00E943C111F869DC0A2
:101B70008F85882F90E0880F991FFC01E156FF4F59
:101B800080819181982F83E0692F0E94FB10882328
:101B9000B9F48F85882F90E0880F991FFC01E156DA
:101BA000FF4F80819181982F83E0692F0E94FB1065
:101BB000882379F388896F850E946C0E898B82C097
:101BC00080E090E0A0E2B1E48B879C87AD87BE8780
:101BD0006B857C858D859E8520E030E04AE753E467
:101BE0000E941F02DC01CB018F839887A987BA87E7
:101BF0006F81788589859A8520E030E040E85FE351
:101C00000E94790388232CF481E090E09E838D83E9
:101C10003FC06F81788589859A8520E03FEF4FE747
:101C200057E40E94190318164CF56B857C858D8549
:101C30009E8520E030E040E251E40E941F02DC017A
:101C4000CB01BC01CD010E944900DC01CB019E8388
:101C50008D830FC089E190E09C838B838B819C8175
:101C60000197F1F79C838B838D819E8101979E83E1
:101C70008D838D819E81009769F714C06F8178856F
:101C800089859A850E944900DC01CB019E838D8362
:101C90008D819E819A83898389819A810197F1F749
:101CA0009A8389838F858F5F8F878F85843008F42F
:101CB0005FCF88898F5F888B8889843008F442CF12
:101CC0008EE4898B898961960FB6F894DEBF0FBECA
:101CD000CDBFCF91DF910895DF93CF93CDB7DEB71E
:101CE0002B970FB6F894DEBF0FBECDBF89836A83F2
:101CF0008981882359F58A81282F30E03B872A87FC
:101D00008A859B8581309105C1F02A853B852230EB
:101D100031052CF48A859B85009761F0A1C02A8546
:101D20003B852230310561F08A859B8583309105A2
:101D300051F096C097E3998795C024E3298792C014
:101D400031E339878FC08FE489878CC089818130E6
:101D500059F58A81282F30E038872F838F81988525
:101D600081309105C1F02F813885223031052CF466
:101D70008F819885009761F073C02F81388522305C
:101D8000310561F08F8198858330910551F068C0ED
:101D900098E3998767C025E3298764C032E33987D0
:101DA00061C080E389875EC08981823059F58A816C
:101DB000282F30E03E832D838D819E8181309105D7
:101DC000C1F02D813E81223031052CF48D819E8120
:101DD000009761F045C02D813E812230310561F0D0
:101DE0008D819E818330910551F03AC099E39987A6
:101DF00039C026E3298736C033E3398733C08DE302
:101E0000898730C08981833059F58A81282F30E055
:101E10003C832B838B819C8181309105C1F02B8188
:101E20003C81223031052CF48B819C81009761F03C
:101E300017C02B813C812230310561F08B819C8160
:101E40008330910551F00CC09FE299870BC02AE2C4
:101E5000298708C03DE2398705C08BE2898702C027
:101E60009EE4998789852B960FB6F894DEBF0FBE46
:101E7000CDBFCF91DF9108950F931F93DF93CF9341
:101E800000D000D0CDB7DEB79A83898300E210E09E
:101E9000E981FA8185819681A781B085E981FA81FE
:101EA0002181328143815481BC01CD010E943112D4
:101EB000DA01C9014097A109B109B695A79597958F
:101EC0008795E981FA812081222F30E040E050E0BF
:101ED000BC01CD010E941212DC01CB01F80180830C
:101EE000A1E2B0E0E1E2F0E080818C7F8C93E981B7
:101EF000FA818081282F30E03C832B838B819C8169
:101F000084309105E9F0EB81FC81E530F10534F492
:101F10002B813C812130310561F029C08B819C816E
:101F200080319105A9F0EB81FC81E034F105C1F02D
:101F30001EC0E1E2F0E0A1E2B0E08C91808317C026
:101F4000A1E2B0E0E1E2F0E0808181608C930FC01B
:101F5000A1E2B0E0E1E2F0E0808182608C9307C012
:101F6000A1E2B0E0E1E2F0E0808183608C930F9029
:101F70000F900F900F90CF91DF911F910F910895C7
:101F8000DF93CF93CDB7DEB7E6E5F0E084EA808358
:101F9000E6E5F0E080818823DCF7E1E2F0E0808193
:101FA000882F90E08C7F88309105B9F7CF91DF9131
:101FB0000895DF93CF930F92CDB7DEB78983E3E225
:101FC000F0E089818083E6E5F0E084E88083E6E55F
:101FD000F0E080818823DCF70F90CF91DF910895A6
:101FE000DF93CF93CDB7DEB7E6E5F0E084E98083F9
:101FF000CF91DF910895DF93CF930F92CDB7DEB7E6
:102000008983E1E2F0E08081882F90E09C012C7FC1
:102010008981882F90E02817390799F70F90CF9181
:10202000DF910895DF93CF930F92CDB7DEB7898309
:10203000E2E2F0E0898180830F90CF91DF910895F3
:10204000DF93CF9300D0CDB7DEB79A838983E6E5DF
:10205000F0E084EC8083E6E5F0E080818823DCF723
:10206000E1E2F0E08081882F90E08C7F803691055E
:10207000B9F7E6E5F0E084EC8083E6E5F0E0808106
:102080008823DCF7E1E2F0E08081882F90E08C7F0C
:1020900080389105B9F7E3E2F0E08081E981FA81C7
:1020A00080830F900F90CF91DF910895DF93CF93AE
:1020B00000D000D0CDB7DEB78A8319828A81282F5D
:1020C00030E03C832B838B819C8181309105C1F072
:1020D0002B813C81223031052CF48B819C8100972F
:1020E00061F016C02B813C812230310561F08B817B
:1020F0009C818330910551F00BC089E3898308C02E
:1021000086E3898305C083E3898302C080E38983F2
:1021100089810F900F900F900F90CF91DF910895CC
:10212000DF93CF9300D0CDB7DEB71A8219820AC0F1
:10213000998180E0692F0E94E51089819A8101963A
:102140009A83898389819A81843091058CF30F90D9
:102150000F90CF91DF910895DF93CF930F92CDB77A
:10216000DEB7898389810E945610882F90E00196FE
:10217000FC0180810F90CF91DF910895DF93CF9381
:102180000F92CDB7DEB7898389810E945610882FC0
:1021900090E0FC0180810F90CF91DF910895DF9353
:1021A000CF9300D0CDB7DEB789836A838A810E943E
:1021B0005610882F90E00296FC018981808381E08F
:1021C0000F900F90CF91DF910895DF93CF9300D0C0
:1021D000CDB7DEB789836A838A810E945610882F23
:1021E00090E00196FC018981808381E00F900F903F
:1021F000CF91DF910895DF93CF9300D0CDB7DEB7B5
:1022000089836A8389810E945610882F90E0FC019F
:102210008081282F30E08A81882F90E0A90102C0B8
:10222000559547958A95E2F7CA0181700F900F90F6
:10223000CF91DF910895DF93CF9300D0CDB7DEB774
:1022400089836A8389810E945610882F90E00196C5
:10225000FC018081282F30E08A81882F90E0A9013D
:1022600002C0559547958A95E2F7CA0181700F9093
:102270000F90CF91DF910895DF93CF9300D000D0DE
:1022800000D0CDB7DEB78A836B834C838C81282F37
:1022900030E03E832D838D819E81009719F12D8141
:1022A0003E8121303105E9F58A810E945610282FA0
:1022B000822F90E00296DC01822F90E00296FC01D2
:1022C0008081482F8B81282F30E081E090E0022E22
:1022D00002C0880F991F0A94E2F7842B8C9381E047
:1022E000898320C08A810E945610282F822F90E077
:1022F0000296DC01822F90E00296FC018081482F3B
:102300008B81282F30E081E090E0022E02C0880F00
:10231000991F0A94E2F7809584238C9381E0898346
:1023200001C01982898126960FB6F894DEBF0FBED0
:10233000CDBFCF91DF910895DF93CF9300D000D030
:1023400000D0CDB7DEB78A836B834C838C81282F76
:1023500030E03E832D838D819E81009719F12D8180
:102360003E8121303105E9F58A810E945610282FDF
:10237000822F90E00196DC01822F90E00196FC0113
:102380008081482F8B81282F30E081E090E0022E61
:1023900002C0880F991F0A94E2F7842B8C9381E086
:1023A000898320C08A810E945610282F822F90E0B6
:1023B0000196DC01822F90E00196FC018081482F7C
:1023C0008B81282F30E081E090E0022E02C0880F40
:1023D000991F0A94E2F7809584238C9381E0898386
:1023E00001C01982898126960FB6F894DEBF0FBE10
:1023F000CDBFCF91DF910895DF93CF930F92CDB7EB
:10240000DEB71982EAE3F0E08FEF808380ED0E946F
:102410001210CE0101960E942010EBE3F0E08981BA
:102420008083F7CF629FD001739FF001829FE00D00
:10243000F11D649FE00DF11D929FF00D839FF00D43
:10244000749FF00D659FF00D9927729FB00DE11DEF
:10245000F91F639FB00DE11DF91FBD01CF011124CC
:102460000895A1E21A2EAA1BBB1BFD010DC0AA1FD5
:10247000BB1FEE1FFF1FA217B307E407F50720F0ED
:10248000A21BB30BE40BF50B661F771F881F991F68
:102490001A9469F760957095809590959B01AC01B1
:1024A000BD01CF0108952F923F924F925F926F929C
:1024B0007F928F929F92AF92BF92CF92DF92EF92D4
:1024C000FF920F931F93CF93DF93CDB7DEB7CA1B55
:1024D000DB0B0FB6F894DEBF0FBECDBF09942A8880
:1024E000398848885F846E847D848C849B84AA8428
:1024F000B984C884DF80EE80FD800C811B81AA81B5
:10250000B981CE0FD11D0FB6F894DEBF0FBECDBF7F
:10251000ED010895AEE0B0E0E0E9F2E10C94611263
:102520000D891E8986E08C831A8309838FEF9FE7CC
:102530009E838D839E01275E3F4FCE0101966F895A
:10254000788DA9010E94AE122F813885020F131FCA
:10255000F80110822E96E4E00C947D12ABE0B0E01E
:10256000E4EBF2E10C9453123C012B015A01FC0103
:1025700017821682838181FD03C06FEF7FEFC6C192
:102580009AE0892E1E010894211C311CF30123813D
:10259000F20123FD859123FF81912F01882309F406
:1025A000B2C1853239F423FD859123FF81912F013A
:1025B000853229F490E0B3010E94A114E7CF982F4F
:1025C000FF24EE249924FFE1FF15D0F09B3269F03F
:1025D0009C3228F4903259F0933291F40EC09D321F
:1025E00049F0903369F441E024C052E0F52A84E0D8
:1025F000F82A28C098E0F92A25C0E0E1FE2A22C086
:10260000F7FC29C0892F80538A3070F4F6FE05C08C
:10261000989C902C1124980E15C0E89CE02C112455
:10262000E80EF0E2FF2A0EC09E3229F4F6FC6BC1E0
:1026300040E4F42A07C09C3619F450E8F52A02C099
:10264000983649F4F20123FD959123FF91912F01D2
:10265000992309F0B8CF892F8554833018F0805220
:10266000833038F444E050E0A40EB51E5FE3598394
:102670000FC0933631F0933779F0933509F056C097
:1026800020C0F5018081898342E050E0A40EB51E90
:10269000610101E010E012C0F501C080D180F6FCBC
:1026A00003C06FEF7FEF02C0692D70E042E050E0A1
:1026B000A40EB51EC6010E9496148C015FE7F52298
:1026C00014C0F501C080D180F6FC03C06FEF7FEF2E
:1026D00002C0692D70E042E050E0A40EB51EC601B4
:1026E0000E948B148C0150E8F52AF3FE07C01AC033
:1026F00080E290E0B3010E94A114EA948E2D90E054
:1027000008171907A8F30EC0F601F7FC8591F7FE2C
:1027100081916F0190E0B3010E94A114E110EA944D
:10272000015010400115110579F7EAC0943611F0F7
:10273000993669F5F7FE08C0F501208131814281A3
:10274000538184E090E00AC0F501808191819C0171
:10275000442737FD4095542F82E090E0A80EB91E23
:102760009FE6F92257FF09C0509540953095219575
:102770003F4F4F4F5F4FE0E8FE2ACA01B901A10168
:102780002AE030E00E94CD14D82ED21840C09537F0
:1027900029F41F2D1F7E2AE030E01DC01F2D197F58
:1027A0009F3661F0903720F4983509F0ACC00FC027
:1027B000903739F0983709F0A6C004C028E030E01F
:1027C0000AC0106114FD146020E130E004C014FD63
:1027D000166020E132E017FF08C0F50160817181C9
:1027E0008281938144E050E008C0F50180819181AD
:1027F000BC0180E090E042E050E0A40EB51EA101D3
:102800000E94CD14D82ED2188FE7F82EF122F6FEB2
:102810000BC05EEFF522D91438F4F4FE07C0F2FCC9
:1028200005C08FEEF82202C01D2D01C0192DF4FE47
:102830000DC0FE01ED0DF11D8081803319F499EE7C
:10284000F92208C01F5FF2FE05C003C08F2D8678F5
:1028500009F01F5F0F2DF3FC14C0F0FE0FC01E1512
:1028600010F09D2C0BC09D2C9E0C911A1E2D06C0A5
:1028700080E290E0B3010E94A1141F5F1E15C0F317
:1028800004C01E1510F4E11A01C0EE2404FF0FC0AD
:1028900080E390E0B3010E94A11402FF1DC001FD7E
:1028A00003C088E790E00EC088E590E00BC0802F61
:1028B000867891F001FF02C08BE201C080E2F7FC54
:1028C0008DE290E0B3010E94A11406C080E390E085
:1028D000B3010E94A1149A94D914C0F3DA94F101BF
:1028E000ED0DF11D808190E0B3010E94A114DD2067
:1028F000A9F706C080E290E0B3010E94A114EA9417
:10290000EE20C1F743CEF30166817781CB012B9690
:10291000E2E10C946F12FC010590615070400110CF
:10292000D8F7809590958E0F9F1F0895FC016150F8
:10293000704001900110D8F7809590958E0F9F1FE1
:1029400008950F931F93CF93DF938C01EB018B813D
:1029500081FF1BC082FF0DC02E813F818C819D8134
:102960002817390764F4E881F9810193F983E88332
:1029700006C0E885F985802F0995892B31F48E8171
:102980009F8101969F838E8302C00FEF1FEFC801C6
:10299000DF91CF911F910F910895FA01AA27283056
:1029A00051F1203181F1E8946F936E7F6E5F7F4F1C
:1029B0008F4F9F4FAF4FB1E03ED0B4E03CD0670F98
:1029C000781F891F9A1FA11D680F791F8A1F911DEB
:1029D000A11D6A0F711D811D911DA11D20D009F43B
:1029E00068943F912AE0269F11243019305D31937D
:1029F000DEF6CF010895462F4770405D4193B3E066
:102A00000FD0C9F7F6CF462F4F70405D4A3318F00C
:102A1000495D31FD4052419302D0A9F7EACFB4E0BD
:102A2000A6959795879577956795BA95C9F7009775
:102A30006105710508959B01AC010A2E0694579516
:102A4000479537952795BA95C9F7620F731F841F6D
:0A2A5000951FA01D0895F894FFCF14
:102A5A0025640000000000000000000102040205D5
:102A6A000206020702020302010301010300010038
:102A7A00FF11111111FF00007F4949494936000031
:102A8A00000103010201010200010701060105001C
:102A9A000001000200030004000500060007000010
:00000001FF
