S01D0000556E6974365F4C6573736F6E345F5345435F4C41422E73726563C2
S11300000C942A000C945B000C9477000C949300DD
S11300100C9434000C9434000C9434000C9434008C
S11300200C9434000C9434000C9434000C9434007C
S11300300C9434000C9434000C9434000C9434006C
S11300400C9434000C9434000C9434000C9434005C
S11300500C94340011241FBECFE5D8E0DEBFCDBF21
S11300600E944A000C94AF000C94000081B3806E8F
S113007081BB08958FB780688FBF85B7816085BFC6
S113008085B78C6085BF84B78F7B84BF8BB7806E48
S11300908BBF08950E9436000E943A0082B38F718C
S11300A082BB2FE38DE093E0215080409040E1F744
S11300B000C00000F3CF1F920F920FB60F921124CD
S11300C02F938F939F9382B3806282BB2FE38DE043
S11300D093E0215080409040E1F700C000009F91E0
S11300E08F912F910F900FBE0F901F9018951F9214
S11300F00F920FB60F9211242F938F939F9382B375
S1130100806482BB2FE38DE093E0215080409040D7
S1130110E1F700C000009F918F912F910F900FBEC7
S11301200F901F9018951F920F920FB60F921124E3
S11301302F938F939F9382B3806882BB2FE38DE0CC
S113014093E0215080409040E1F700C000009F916F
S11301508F912F910F900FBE0F901F901895F894C8
S1050160FFCFCB
S9030000FC
